{"abi":[{"type":"function","name":"applyMove","inputs":[{"name":"board","type":"uint16[4][4]","internalType":"uint16[4][4]"},{"name":"dir","type":"uint8","internalType":"enum TwentyFortyEight.Direction"}],"outputs":[{"name":"newBoard","type":"uint16[4][4]","internalType":"uint16[4][4]"},{"name":"points","type":"uint256","internalType":"uint256"},{"name":"moved","type":"bool","internalType":"bool"}],"stateMutability":"pure"},{"type":"function","name":"games","inputs":[{"name":"","type":"bytes32","internalType":"bytes32"}],"outputs":[{"name":"score","type":"uint256","internalType":"uint256"},{"name":"gameOver","type":"bool","internalType":"bool"},{"name":"lastPlayer","type":"address","internalType":"address"},{"name":"lastMoveBlock","type":"uint256","internalType":"uint256"}],"stateMutability":"view"},{"type":"function","name":"getBoard","inputs":[{"name":"gameId","type":"bytes32","internalType":"bytes32"}],"outputs":[{"name":"","type":"uint16[4][4]","internalType":"uint16[4][4]"}],"stateMutability":"view"},{"type":"function","name":"joinGame","inputs":[{"name":"name","type":"string","internalType":"string"}],"outputs":[],"stateMutability":"nonpayable"},{"type":"function","name":"move","inputs":[{"name":"name","type":"string","internalType":"string"},{"name":"dir","type":"uint8","internalType":"enum TwentyFortyEight.Direction"}],"outputs":[],"stateMutability":"nonpayable"},{"type":"event","name":"GameReset","inputs":[{"name":"gameId","type":"bytes32","indexed":true,"internalType":"bytes32"}],"anonymous":false},{"type":"event","name":"MoveMade","inputs":[{"name":"gameId","type":"bytes32","indexed":true,"internalType":"bytes32"},{"name":"player","type":"address","indexed":true,"internalType":"address"},{"name":"dir","type":"uint8","indexed":false,"internalType":"enum TwentyFortyEight.Direction"},{"name":"board","type":"uint16[4][4]","indexed":false,"internalType":"uint16[4][4]"},{"name":"score","type":"uint256","indexed":false,"internalType":"uint256"}],"anonymous":false}],"bytecode":{"object":"0x6080604052348015600e575f5ffd5b506126ed8061001c5f395ff3fe608060405234801561000f575f5ffd5b5060043610610055575f3560e01c80633d536a2e146100595780635968497614610075578063ab58e177146100a7578063e51b891f146100c3578063f579f882146100f3575b5f5ffd5b610073600480360381019061006e919061158f565b610126565b005b61008f600480360381019061008a9190611790565b610230565b60405161009e9392919061193d565b60405180910390f35b6100c160048036038101906100bc9190611975565b6106f2565b005b6100dd60048036038101906100d89190611a02565b610a50565b6040516100ea9190611a2d565b60405180910390f35b61010d60048036038101906101089190611a02565b610b08565b60405161011d9493929190611a86565b60405180910390f35b5f816040516020016101389190611b1b565b6040516020818303038152906040528051906020012090505f5f5f8381526020019081526020015f209050610205815f01600480602002604051908101604052809291905f905b828210156101fc578382016004806020026040519081016040528092919082600480156101e8576020028201915f905b82829054906101000a900461ffff1661ffff16815260200190600201906020826001010492830192600103820291508084116101af5790505b50505050508152602001906001019061017f565b50505050610b60565b1561022b5761021a815f018260040154610bf2565b61022a815f018260040154610bf2565b5b505050565b610238611284565b5f5f8492505f91505f90505f5f90505b60048160ff1610156106ea5761025c6112b1565b5f5f90505b60048160ff16101561044c575f6002600381111561028257610281611b31565b5b88600381111561029557610294611b31565b5b036102d257868460ff16600481106102b0576102af611b5e565b5b60200201518260ff16600481106102ca576102c9611b5e565b5b602002015190505b6003808111156102e5576102e4611b31565b5b8860038111156102f8576102f7611b31565b5b0361034157868460ff166004811061031357610312611b5e565b5b60200201518260036103259190611bc4565b60ff166004811061033957610338611b5e565b5b602002015190505b5f600381111561035457610353611b31565b5b88600381111561036757610366611b31565b5b036103a457868260ff166004811061038257610381611b5e565b5b60200201518460ff166004811061039c5761039b611b5e565b5b602002015190505b600160038111156103b8576103b7611b31565b5b8860038111156103cb576103ca611b31565b5b0361041457868260036103de9190611bc4565b60ff16600481106103f2576103f1611b5e565b5b60200201518460ff166004811061040c5761040b611b5e565b5b602002015190505b80838360ff166004811061042b5761042a611b5e565b5b602002019061ffff16908161ffff1681525050508080600101915050610261565b505f5f5f61045984610d60565b925092509250801561046a57600195505b81876104769190611bf8565b96505f5f90505b60048160ff1610156106d8576002600381111561049d5761049c611b31565b5b8a60038111156104b0576104af611b31565b5b0361051457838160ff16600481106104cb576104ca611b5e565b5b6020020151898760ff16600481106104e6576104e5611b5e565b5b60200201518260ff1660048110610500576104ff611b5e565b5b602002019061ffff16908161ffff16815250505b60038081111561052757610526611b31565b5b8a600381111561053a57610539611b31565b5b036105aa57838160ff166004811061055557610554611b5e565b5b6020020151898760ff16600481106105705761056f611b5e565b5b60200201518260036105829190611bc4565b60ff166004811061059657610595611b5e565b5b602002019061ffff16908161ffff16815250505b5f60038111156105bd576105bc611b31565b5b8a60038111156105d0576105cf611b31565b5b0361063457838160ff16600481106105eb576105ea611b5e565b5b6020020151898260ff166004811061060657610605611b5e565b5b60200201518760ff16600481106106205761061f611b5e565b5b602002019061ffff16908161ffff16815250505b6001600381111561064857610647611b31565b5b8a600381111561065b5761065a611b31565b5b036106cb57838160ff166004811061067657610675611b5e565b5b6020020151898260036106899190611bc4565b60ff166004811061069d5761069c611b5e565b5b60200201518760ff16600481106106b7576106b6611b5e565b5b602002019061ffff16908161ffff16815250505b808060010191505061047d565b50505050508080600101915050610248565b509250925092565b5f826040516020016107049190611b1b565b6040516020818303038152906040528051906020012090505f5f5f8381526020019081526020015f209050806005015f9054906101000a900460ff1615610780576040517f08c379a000000000000000000000000000000000000000000000000000000000815260040161077790611c85565b60405180910390fd5b5f5f5f610826845f01600480602002604051908101604052809291905f905b8282101561081c57838201600480602002604051908101604052809291908260048015610808576020028201915f905b82829054906101000a900461ffff1661ffff16815260200190600201906020826001010492830192600103820291508084116107cf5790505b50505050508152602001906001019061079f565b5050505087610230565b9250925092508061086c576040517f08c379a000000000000000000000000000000000000000000000000000000000815260040161086390611ced565b60405180910390fd5b82845f0190600461087e9291906112d3565b5081846004015f8282546108929190611bf8565b92505081905550338460050160016101000a81548173ffffffffffffffffffffffffffffffffffffffff021916908373ffffffffffffffffffffffffffffffffffffffff1602179055504384600601819055506108f5845f018560040154610bf2565b610997845f01600480602002604051908101604052809291905f905b8282101561098e5783820160048060200260405190810160405280929190826004801561097a576020028201915f905b82829054906101000a900461ffff1661ffff16815260200190600201906020826001010492830192600103820291508084116109415790505b505050505081526020019060010190610911565b50505050611061565b6109ee576001846005015f6101000a81548160ff021916908315150217905550847faa4c89b5ed6aad2dc493c24cc0f3bfe8f98b690a46267cfbefeb806559fb658160405160405180910390a26109ed8461122f565b5b3373ffffffffffffffffffffffffffffffffffffffff16857f79a34dac36d8c775cb6b24865f6beb570c2184df9e9c6b94d985ed307abe87e188875f018860040154604051610a3f9392919061247c565b60405180910390a350505050505050565b610a58611284565b5f5f8381526020019081526020015f205f01600480602002604051908101604052809291905f905b82821015610afd57838201600480602002604051908101604052809291908260048015610ae9576020028201915f905b82829054906101000a900461ffff1661ffff1681526020019060020190602082600101049283019260010382029150808411610ab05790505b505050505081526020019060010190610a80565b505050509050919050565b5f602052805f5260405f205f91509050806004015490806005015f9054906101000a900460ff16908060050160019054906101000a900473ffffffffffffffffffffffffffffffffffffffff16908060060154905084565b5f5f5f90505b60048160ff161015610be7575f5f90505b60048160ff161015610bd9575f848360ff1660048110610b9a57610b99611b5e565b5b60200201518260ff1660048110610bb457610bb3611b5e565b5b602002015161ffff1614610bcc575f92505050610bed565b8080600101915050610b77565b508080600101915050610b66565b50600190505b919050565b5f42600143610c0191906124b3565b4083604051602001610c1593929190612526565b604051602081830303815290604052805190602001205f1c90505f5f90505b60108160ff161015610d59575f60108260ff1684610c529190611bf8565b610c5c919061258f565b90505f600482610c6c91906125bf565b90505f600483610c7c91906125ef565b90505f878260ff1660048110610c9557610c94611b5e565b5b018360ff1660048110610cab57610caa611b5e565b5b601091828204019190066002029054906101000a900461ffff1661ffff1603610d49575f600a86610cdc919061258f565b14610ce8576002610ceb565b60045b60ff16878260ff1660048110610d0457610d03611b5e565b5b018360ff1660048110610d1a57610d19611b5e565b5b601091828204019190066002026101000a81548161ffff021916908361ffff1602179055505050505050610d5c565b5050508080600101915050610c34565b50505b5050565b610d686112b1565b5f5f610d726112b1565b5f5f90505f5f90505b60048160ff161015610e0a575f878260ff1660048110610d9e57610d9d611b5e565b5b602002015161ffff1614610dfd57868160ff1660048110610dc257610dc1611b5e565b5b6020020151838380610dd39061261f565b945060ff1660048110610de957610de8611b5e565b5b602002019061ffff16908161ffff16815250505b8080600101915050610d7b565b505f5f90505b60038160ff161015610f54575f838260ff1660048110610e3357610e32611b5e565b5b602002015161ffff1614158015610e91575082600182610e539190612647565b60ff1660048110610e6757610e66611b5e565b5b602002015161ffff16838260ff1660048110610e8657610e85611b5e565b5b602002015161ffff16145b15610f41576002838260ff1660048110610eae57610ead611b5e565b5b60200201818151610ebf919061267b565b91509061ffff16908161ffff1681525050828160ff1660048110610ee657610ee5611b5e565b5b602002015161ffff1685610efa9190611bf8565b94505f83600183610f0b9190612647565b60ff1660048110610f1f57610f1e611b5e565b5b602002019061ffff16908161ffff16815250508080610f3d9061261f565b9150505b8080610f4c9061261f565b915050610e10565b505f90505f5f90505b60048160ff161015610fec575f838260ff1660048110610f8057610f7f611b5e565b5b602002015161ffff1614610fdf57828160ff1660048110610fa457610fa3611b5e565b5b6020020151868380610fb59061261f565b945060ff1660048110610fcb57610fca611b5e565b5b602002019061ffff16908161ffff16815250505b8080600101915050610f5d565b505f5f90505b60048160ff16101561105757868160ff166004811061101457611013611b5e565b5b602002015161ffff16868260ff166004811061103357611032611b5e565b5b602002015161ffff161461104a5760019350611057565b8080600101915050610ff2565b5050509193909250565b5f5f5f90505b60048160ff161015611225575f5f90505b60048160ff161015611217575f848360ff166004811061109b5761109a611b5e565b5b60200201518260ff16600481106110b5576110b4611b5e565b5b602002015161ffff16036110ce5760019250505061122a565b60038160ff1610801561115c5750838260ff16600481106110f2576110f1611b5e565b5b60200201516001826111049190612647565b60ff166004811061111857611117611b5e565b5b602002015161ffff16848360ff166004811061113757611136611b5e565b5b60200201518260ff166004811061115157611150611b5e565b5b602002015161ffff16145b1561116c5760019250505061122a565b60038260ff161080156111fa5750836001836111889190612647565b60ff166004811061119c5761119b611b5e565b5b60200201518160ff16600481106111b6576111b5611b5e565b5b602002015161ffff16848360ff16600481106111d5576111d4611b5e565b5b60200201518260ff16600481106111ef576111ee611b5e565b5b602002015161ffff16145b1561120a5760019250505061122a565b8080600101915050611078565b508080600101915050611067565b505f90505b919050565b805f015f61123d9190611321565b5f81600401819055505f816005015f6101000a81548160ff021916908315150217905550611271815f018260040154610bf2565b611281815f018260040154610bf2565b50565b60405180608001604052806004905b61129b6112b1565b8152602001906001900390816112935790505090565b6040518060800160405280600490602082028036833780820191505090505090565b8260048101928215611310579160200282015b8281111561130f578251829060046112ff929190611362565b50916020019190600101906112e6565b5b50905061131d91906113fe565b5090565b505f818161132f9190611421565b506001015f81816113409190611421565b506001015f81816113519190611421565b506001015f6113609190611421565b565b826004600f016010900481019282156113ed579160200282015f5b838211156113bd57835183826101000a81548161ffff021916908361ffff160217905550926020019260020160208160010104928301926001030261137d565b80156113eb5782816101000a81549061ffff02191690556002016020816001010492830192600103026113bd565b505b5090506113fa9190611427565b5090565b5b8082111561141d575f81816114149190611421565b506001016113ff565b5090565b505f9055565b5b8082111561143e575f815f905550600101611428565b5090565b5f604051905090565b5f5ffd5b5f5ffd5b5f5ffd5b5f5ffd5b5f601f19601f8301169050919050565b7f4e487b71000000000000000000000000000000000000000000000000000000005f52604160045260245ffd5b6114a18261145b565b810181811067ffffffffffffffff821117156114c0576114bf61146b565b5b80604052505050565b5f6114d2611442565b90506114de8282611498565b919050565b5f67ffffffffffffffff8211156114fd576114fc61146b565b5b6115068261145b565b9050602081019050919050565b828183375f83830152505050565b5f61153361152e846114e3565b6114c9565b90508281526020810184848401111561154f5761154e611457565b5b61155a848285611513565b509392505050565b5f82601f83011261157657611575611453565b5b8135611586848260208601611521565b91505092915050565b5f602082840312156115a4576115a361144b565b5b5f82013567ffffffffffffffff8111156115c1576115c061144f565b5b6115cd84828501611562565b91505092915050565b5f67ffffffffffffffff8211156115f0576115ef61146b565b5b602082029050919050565b5f5ffd5b5f67ffffffffffffffff8211156116195761161861146b565b5b602082029050919050565b5f61ffff82169050919050565b61163a81611624565b8114611644575f5ffd5b50565b5f8135905061165581611631565b92915050565b5f61166d611668846115ff565b6114c9565b90508060208402830185811115611687576116866115fb565b5b835b818110156116b0578061169c8882611647565b845260208401935050602081019050611689565b5050509392505050565b5f82601f8301126116ce576116cd611453565b5b60046116db84828561165b565b91505092915050565b5f6116f66116f1846115d6565b6114c9565b905080608084028301858111156117105761170f6115fb565b5b835b81811015611739578061172588826116ba565b845260208401935050608081019050611712565b5050509392505050565b5f82601f83011261175757611756611453565b5b60046117648482856116e4565b91505092915050565b60048110611779575f5ffd5b50565b5f8135905061178a8161176d565b92915050565b5f5f61022083850312156117a7576117a661144b565b5b5f6117b485828601611743565b9250506102006117c68582860161177c565b9150509250929050565b5f60049050919050565b5f81905092915050565b5f819050919050565b5f60049050919050565b5f81905092915050565b5f819050919050565b61181381611624565b82525050565b5f611824838361180a565b60208301905092915050565b5f602082019050919050565b611845816117ed565b61184f81846117f7565b925061185a82611801565b805f5b8381101561188a5781516118718782611819565b965061187c83611830565b92505060018101905061185d565b505050505050565b5f61189d838361183c565b60808301905092915050565b5f602082019050919050565b6118be816117d0565b6118c881846117da565b92506118d3826117e4565b805f5b838110156119035781516118ea8782611892565b96506118f5836118a9565b9250506001810190506118d6565b505050505050565b5f819050919050565b61191d8161190b565b82525050565b5f8115159050919050565b61193781611923565b82525050565b5f610240820190506119515f8301866118b5565b61195f610200830185611914565b61196d61022083018461192e565b949350505050565b5f5f6040838503121561198b5761198a61144b565b5b5f83013567ffffffffffffffff8111156119a8576119a761144f565b5b6119b485828601611562565b92505060206119c58582860161177c565b9150509250929050565b5f819050919050565b6119e1816119cf565b81146119eb575f5ffd5b50565b5f813590506119fc816119d8565b92915050565b5f60208284031215611a1757611a1661144b565b5b5f611a24848285016119ee565b91505092915050565b5f61020082019050611a415f8301846118b5565b92915050565b5f73ffffffffffffffffffffffffffffffffffffffff82169050919050565b5f611a7082611a47565b9050919050565b611a8081611a66565b82525050565b5f608082019050611a995f830187611914565b611aa6602083018661192e565b611ab36040830185611a77565b611ac06060830184611914565b95945050505050565b5f81519050919050565b5f81905092915050565b8281835e5f83830152505050565b5f611af582611ac9565b611aff8185611ad3565b9350611b0f818560208601611add565b80840191505092915050565b5f611b268284611aeb565b915081905092915050565b7f4e487b71000000000000000000000000000000000000000000000000000000005f52602160045260245ffd5b7f4e487b71000000000000000000000000000000000000000000000000000000005f52603260045260245ffd5b5f60ff82169050919050565b7f4e487b71000000000000000000000000000000000000000000000000000000005f52601160045260245ffd5b5f611bce82611b8b565b9150611bd983611b8b565b9250828203905060ff811115611bf257611bf1611b97565b5b92915050565b5f611c028261190b565b9150611c0d8361190b565b9250828201905080821115611c2557611c24611b97565b5b92915050565b5f82825260208201905092915050565b7f47616d65206f76657200000000000000000000000000000000000000000000005f82015250565b5f611c6f600983611c2b565b9150611c7a82611c3b565b602082019050919050565b5f6020820190508181035f830152611c9c81611c63565b9050919050565b7f4e6f2074696c6573206d6f7665640000000000000000000000000000000000005f82015250565b5f611cd7600e83611c2b565b9150611ce282611ca3565b602082019050919050565b5f6020820190508181035f830152611d0481611ccb565b9050919050565b60048110611d1c57611d1b611b31565b5b50565b5f819050611d2c82611d0b565b919050565b5f611d3b82611d1f565b9050919050565b611d4b81611d31565b82525050565b5f60049050919050565b5f819050919050565b5f60049050919050565b5f819050919050565b5f815f1c9050919050565b5f61ffff82169050919050565b5f611da1611d9c83611d77565b611d82565b9050919050565b5f8160101c9050919050565b5f611dc6611dc183611da8565b611d82565b9050919050565b5f8160201c9050919050565b5f611deb611de683611dcd565b611d82565b9050919050565b5f8160301c9050919050565b5f611e10611e0b83611df2565b611d82565b9050919050565b5f8160401c9050919050565b5f611e35611e3083611e17565b611d82565b9050919050565b5f8160501c9050919050565b5f611e5a611e5583611e3c565b611d82565b9050919050565b5f8160601c9050919050565b5f611e7f611e7a83611e61565b611d82565b9050919050565b5f8160701c9050919050565b5f611ea4611e9f83611e86565b611d82565b9050919050565b5f8160801c9050919050565b5f611ec9611ec483611eab565b611d82565b9050919050565b5f8160901c9050919050565b5f611eee611ee983611ed0565b611d82565b9050919050565b5f8160a01c9050919050565b5f611f13611f0e83611ef5565b611d82565b9050919050565b5f8160b01c9050919050565b5f611f38611f3383611f1a565b611d82565b9050919050565b5f8160c01c9050919050565b5f611f5d611f5883611f3f565b611d82565b9050919050565b5f8160d01c9050919050565b5f611f82611f7d83611f64565b611d82565b9050919050565b5f8160e01c9050919050565b5f611fa7611fa283611f89565b611d82565b9050919050565b5f8160f01c9050919050565b5f611fcc611fc783611fae565b611d82565b9050919050565b611fdc81611d64565b611fe681846117f7565b925082611ff283611d6e565b5f5f1561219d575b8360016010038201101561219c57815461201c8761201783611d8f565b61180a565b6020870196506120348761202f83611db4565b61180a565b60208701965061204c8761204783611dd9565b61180a565b6020870196506120648761205f83611dfe565b61180a565b60208701965061207c8761207783611e23565b61180a565b6020870196506120948761208f83611e48565b61180a565b6020870196506120ac876120a783611e6d565b61180a565b6020870196506120c4876120bf83611e92565b61180a565b6020870196506120dc876120d783611eb7565b61180a565b6020870196506120f4876120ef83611edc565b61180a565b60208701965061210c8761210783611f01565b61180a565b6020870196506121248761211f83611f26565b61180a565b60208701965061213c8761213783611f4b565b61180a565b6020870196506121548761214f83611f70565b61180a565b60208701965061216c8761216783611f95565b61180a565b6020870196506121848761217f83611fba565b61180a565b60208701965060018301925050601081019050611ffa565b5b6001156123fc5781546001156121cc576121bf876121ba83611d8f565b61180a565b6020870196506001820191505b6001156121f2576121e5876121e083611db4565b61180a565b6020870196506001820191505b6001156122185761220b8761220683611dd9565b61180a565b6020870196506001820191505b60011561223e576122318761222c83611dfe565b61180a565b6020870196506001820191505b5f15612263576122568761225183611e23565b61180a565b6020870196506001820191505b5f156122885761227b8761227683611e48565b61180a565b6020870196506001820191505b5f156122ad576122a08761229b83611e6d565b61180a565b6020870196506001820191505b5f156122d2576122c5876122c083611e92565b61180a565b6020870196506001820191505b5f156122f7576122ea876122e583611eb7565b61180a565b6020870196506001820191505b5f1561231c5761230f8761230a83611edc565b61180a565b6020870196506001820191505b5f15612341576123348761232f83611f01565b61180a565b6020870196506001820191505b5f15612366576123598761235483611f26565b61180a565b6020870196506001820191505b5f1561238b5761237e8761237983611f4b565b61180a565b6020870196506001820191505b5f156123b0576123a38761239e83611f70565b61180a565b6020870196506001820191505b5f156123d5576123c8876123c383611f95565b61180a565b6020870196506001820191505b5f156123fa576123ed876123e883611fba565b61180a565b6020870196506001820191505b505b505050505050565b5f61240f8383611fd3565b60808301905092915050565b5f600182019050919050565b61243081611d51565b61243a81846117da565b925061244582611d5b565b805f5b83811015612474578161245b8782612404565b96506124668361241b565b925050600181019050612448565b505050505050565b5f610240820190506124905f830186611d42565b61249d6020830185612427565b6124ab610220830184611914565b949350505050565b5f6124bd8261190b565b91506124c88361190b565b92508282039050818111156124e0576124df611b97565b5b92915050565b5f819050919050565b6125006124fb8261190b565b6124e6565b82525050565b5f819050919050565b61252061251b826119cf565b612506565b82525050565b5f61253182866124ef565b602082019150612541828561250f565b60208201915061255182846124ef565b602082019150819050949350505050565b7f4e487b71000000000000000000000000000000000000000000000000000000005f52601260045260245ffd5b5f6125998261190b565b91506125a48361190b565b9250826125b4576125b3612562565b5b828206905092915050565b5f6125c982611b8b565b91506125d483611b8b565b9250826125e4576125e3612562565b5b828206905092915050565b5f6125f982611b8b565b915061260483611b8b565b92508261261457612613612562565b5b828204905092915050565b5f61262982611b8b565b915060ff820361263c5761263b611b97565b5b600182019050919050565b5f61265182611b8b565b915061265c83611b8b565b9250828201905060ff81111561267557612674611b97565b5b92915050565b5f61268582611624565b915061269083611624565b925082820261269e81611624565b91508082146126b0576126af611b97565b5b509291505056fea2646970667358221220a552c97c0746268eebbb8e7d96c83d5c7a6ae124662a4da88a3b726253ead75364736f6c634300081e0033","linkReferences":{}},"methodIdentifiers":{"applyMove(uint16[4][4],uint8)":"59684976","games(bytes32)":"f579f882","getBoard(bytes32)":"e51b891f","joinGame(string)":"3d536a2e","move(string,uint8)":"ab58e177"},"id":16}